:020000040800F2
:10000000105100207D5200089D5100089F510008AA
:10001000A1510008A3510008A551000800000000EC
:10002000000000000000000000000000AD2F0008EC
:10003000A751000800000000552F0008A951000832
:10004000B3520008B7520008BB520008BF52000864
:10005000C3520008C7520008CB520008CF52000814
:10006000D3520008D7520008C1510008DB520008E3
:10007000DF520008E3520008E7520008EB52000884
:10008000EF520008F3520008F75200080000000089
:10009000000000000000000000000000C751000840
:1000A000FB520008FF5200080353000807530008E2
:1000B0000B5300080F530008135300081753000890
:1000C0001B5300081F530008235300082753000840
:1000D0002B5300082F530008335300080000000082
:1000E000375300083B5300083F530008000000004E
:1000F0000000000000000000000000004353000862
:1001000000000000475300084B5300084F530008FD
:1001100000000000000000000000000000000000DF
:1001200053530008575300085B5300085F530008FF
:100130006353000800000000000000000000000001
:1001400000000000000000000000000067530008ED
:100150006B5300086F53000873530008775300086F
:100160007B5300087F5300080000000000000000DF
:10017000000000000000000000000000000000007F
:100180000000000083530008000000000000000091
:10019000875300088B5300082DE9F84F74A7A2B0CD
:1001A000D7E90045CDE900452C9EDFF8307C04916D
:1001B0008DF843605FF000016FA40D9112944FF031
:1001C000FF368246904699460FE0C3462C461BF800
:1001D000011B0498D0470028049000F0B2800D98CD
:1001E000401C641E0D90F2D1A84498F80000252808
:1001F00007D100210791089109910A910B910C9167
:100200000DE06A463146404600F0D0FF050001D1BE
:100210000D98B5E0D9D50125E6E741F0010118F8C0
:10022000010F2028F9D023280CD02B2804D02D280A
:1002300005D0302809D086E041F00201EFE741F017
:100240000401ECE741F00801E9E741F01001E6E7BD
:1002500000200F900AE00F98B84205DA00EB800307
:1002600002EB4302303A0F9208F1010898F800209F
:10027000A2F130000A28EED398F800002E2818BF0B
:100280000E9629D118F8010F2A280BD1D9F80000B1
:10029000C9F8000008F1010850F8042BC9F8000063
:1002A0000E9219E02D280CBF18F8010B0020002237
:1002B0000E920BE040B90E9ABA4205DA02EB8204C4
:1002C00003EB4403303B0E9308F1010898F800302B
:1002D000A3F130020A2AEDD3ADF84010129898F835
:1002E000001000F06DFF08B118F8010B8DF8420006
:1002F0009DF84200682804BF98F80010682903D1CF
:1003000062208DF8420008E06C2804BF98F80000D5
:100310006C2804D171218DF8421008F1010813A84E
:1003200006904A4618F8013B02A9504600F068F8CA
:1003300038B913AA02A9504600F0CAF900287FF57F
:1003400054AF30461CE02A2882D1D9F80020C9F8E1
:10035000002052F8040BC9F8002000280F9003D5A4
:1003600040420F9041F0040108F1010884E70000C9
:100370000000000000000000686A6C747A4C000005
:1003800023B0BDE8F08F622820D0682811D06A28F9
:1003900003D06C2827D0712825D10868C01D20F013
:1003A00007000860D0E900230830086019461046AD
:1003B0007047002A0A680A60106803D0121D0A609C
:1003C00000B217E0121D0A6080B217E0002A0A6826
:1003D0000A60106803D0121D0A6040B20AE0121DC4
:1003E0000A60C0B20AE0002A0A680A60106803D0F6
:1003F000121D0A60C1177047121D0A600021704764
:100400007CB50D4611461C462E69B4F1250200F05C
:100410004D811C3A00F08680121F022A40F2828031
:100420000E3A00F00781521F5AD0093A7AD0921E34
:1004300016D0521E35D0521E022A73D9121F30D048
:10044000521F00F09A80521E4AD0521E00F0E480E3
:10045000D21E00F0FD80921E42D0D21E40D02BE171
:1004600095F83A206C2A09D06869421C6A610A68CA
:100470000A6052F8043B0A60335427E10A680A60B4
:1004800052F8043B0A600021009301914FF0FF32C3
:100490002A6329466A4600F096F9002840F1168141
:1004A00001E195F83A000122FFF76DFFC5E900016F
:1004B0000023994204DA6869411C69612D210DE02D
:1004C000288F810704D56869411C69612B2105E0EB
:1004D000C00722D56869411C6961202131541CE0A4
:1004E00095F83A000022FFF74EFFC5E9000195F8A4
:1004F0003800010711D5D5E900230020834208BF49
:1005000082420AD044F02000782806D16869302160
:100510003154401C411C696134542146686930449F
:10052000E86083E00868C01D20F007000860D0E99B
:10053000002308300860C5E90023D5E90001C80F91
:1005400004D06869411C69612D210DE0288F810765
:1005500004D56869411C69612B2105E0C00704D5F9
:100560006869411C69612021315468693044E86040
:100570002146284600F032FAA8E005F13A02507808
:1005800020B14FF0FF340FF6243070E0107862286D
:1005900008D0682824D06A2812D06C282ED0712860
:1005A0000ED02BE00A680A6052F8040B0A6020B9EA
:1005B0004FF0FF340FF60C3059E0E96A017085E026
:1005C0000A680A6052F8040B0A6020B94FF0FF3441
:1005D0000FF6F0204BE0EA6AD317C0E9002375E07C
:1005E0000A680A6052F8040B0A6020B94FF0FF3421
:1005F0000FF6D0203BE0E96A018067E00A680A60F4
:1006000052F8040B0A6020B94FF0FF340FF6B42003
:100610002DE0E96A016059E00A680A6052F8040BAB
:100620000A600021C5E90001EE607821284600F04B
:1006300029F94BE06C2285F83A200B680B6053F8DF
:10064000042B0B6052BB4FF0FF340FF6AC200EE0D2
:1006500095F83A206C2AF0D00868086050F8044BEE
:100660000860EC603CB94FF0FF340FF6702000F0EA
:10067000B7FD201A76BD2E6B002E04D5204600F063
:10068000CFFD044608E032460021204600F0E4FD9C
:10069000002814BF041B3446AC6117E0294600F063
:1006A00092F8002812D54FF0FF3076BD6869411CE2
:1006B00069612521315409E06969481C6861252276
:1006C0007254210002D0411C69613454002076BD6F
:1006D0002DE9F0410E460546716B7069B46A091A3E
:1006E000306A091AB069091A706A091AF069091A98
:1006F00096F838000C1B410790460DD4002C0BDDFA
:100700002746B0682021A8470028B06057D0F06A7B
:10071000401C7F1EF062F4D1736942463146284680
:1007200000F0ACFC00284AD1376A002F0ADDB0681F
:100730003021A8470028B06041D0F06A401C7F1EDD
:10074000F062F4D1B369F2683146284600F096FCB5
:10075000A8BB776A002F09DDB0683021A847B060D8
:1007600068B3F06A401C7F1EF062F5D1F068B16991
:10077000F36942183146284600F080FCF8B9B76AA0
:10078000002F09DDB0683021A847B060B8B1F06A29
:10079000401C7F1EF062F5D196F8380041070BD55A
:1007A000002C09DDB0682021A847B06038B1F06A9C
:1007B000401C641EF062F5D10020BDE8F0814FF0CE
:1007C000FF30BDE8F0812DE9F8470D46A3B02F6B4F
:1007D000002F8146904648BF6FF0004700F068FD4B
:1007E000696B40180FF62C118128D1E90023CDE95F
:1007F000012328BF4FF0FF303ED20024002F2FDD11
:10080000D8F8001001AA684600F0D2FC0646002E77
:1008100035D4D8F8000008B9761E30D4B7421FDBB3
:100820006869301881280AD30020686303AA294622
:100830004846FFF74DFF040012D40020686103A86A
:10084000D5F814A032466946504400F037FDB24452
:10085000C5F814A058F8040B002818BFBF1BCDD151
:100860002CB903AA29464846FFF732FF044614B9BB
:10087000002068616863204624B0BDE8F0874FF02F
:10088000FF34F8E72DE9FC4707468A463E69BAF18E
:100890006F0F08BF082405D04AF02001782914BF43
:1008A0000A2410243C25D7E90023BAF1640F18BFAD
:1008B000BAF1690F9046994606D100218B4203DABE
:1008C000D8F1000869EB49090020814508BF80453F
:1008D0001FD1386BE8B9082C4CD197F838000107C4
:1008E00048D530203B2586F83B0043E000280ED554
:1008F00097F8380000F01400102808D17A6B786956
:10090000121A386A121A511A0029C8BF3962BDE892
:10091000F3878DF800A0404649462246E31700F0D1
:1009200021FD3032D0B26D1E3A28019504DB9DF8CE
:100930000000A0F151018A187255404649462246EE
:10094000E31700F00FFD804689460020814508BF6F
:10095000804503D0F86871198842DCD3082C09D18E
:1009600097F83800010705D5715D302902D06D1E5A
:1009700030207055C5F13C01B9617019F860386BD1
:100980008142B3DA411A39624FF6EF70398F014074
:100990003987BDE8F3872DE9D04306460F46144654
:1009A0004FF00008DFF8389412E0E00707D5424620
:1009B0004B463046394600F0EDFD06460F464046B0
:1009C000494642464B4600F0E5FD641080468946A4
:1009D000002CEAD130463946BDE8D0832DE9F34FEB
:1009E000054641F020048DB0D5E90089612C02AEA6
:1009F00009D0286B002848BF062003D408BF672C05
:100A000001D101202863D5E9002358004015401C7E
:100A10000ED119030CD00320A8619DF8380061386D
:100A20001A2802D20FF2F46111E00FF2F4610EE025
:100A300058004015401C0FD119030DD10320A861A7
:100A40009DF8380061381A2814D30FF2DC61E86889
:100A5000032200F033FCD3E1194621F00043B3F543
:100A6000801F10460DD20027BB4208BFBA42019733
:100A700003D111E00FF2AC61E9E701AA00F05CFEDE
:100A80000AE0DFF8607307EB1352DFF85C33019282
:100A90001940DFF858331943C5E90001612C0ED124
:100AA000E86830210170811CE9609DF838106129E7
:100AB0000CBF7821582141706869801C6861D5E9B4
:100AC00000AB2BF0004300202AF00002834204BF59
:100AD0008242002300F05A81612C40F0A980286BEB
:100AE00000284CBF2120401C00904046009F7F1CE6
:100AF00049460022002300F057FED94601988DF8A0
:100B0000082038BF89F00049001F0190002FD0460F
:100B10000DF1090040F3498140F2FF71DFF8D0B2D6
:100B20000C910646404649460022002300F054FE40
:100B300080F03A814800400D00F11C0210D0002ADC
:100B40000EDD0C98824205DB09F0004040EA0B0103
:100B5000002013E0A448084040EA025140460DE05E
:100B600029F00043002028F00002834208BF82429F
:100B70000FBF40461C22404600F046FE8046894694
:100B800000F0E0FEFF1F002F044609DD00F0F8FE34
:100B900002460B464046494600F004FF804689461F
:100BA000F01D072104E004F00F0200F8012D2411CC
:100BB000002C01DD491EF6D5491E5CBF002200F85D
:100BC000012DF9D5ECE00020194602AA0A4400E004
:100BD0005B1E12F80149491E8442F9D00F2804D146
:100BE0000DF10900425C521C4254002904D50198C1
:100BF000001D02AE5B1C0190591E12D49DF83800F6
:100C00007218147804F130085FFA88F4392CC4BFE4
:100C1000A0F13A04A044491E02F80189F1D58DF8EB
:100C20003800286B002840F1B080591E2963ACE0E1
:100C3000404649460022002300F0B6FD019938BF26
:100C400089F0004947F2975041436A4A91FBF2F21A
:100C50000192D2F1070204DD40464946FFF79BFEB0
:100C60000AE0524200206449FFF795FE02460B4617
:100C70004046494600F008FF8046662C286BDFF8A6
:100C80007CB106BF019F0A3706273F18142FC8BF43
:100C9000142730208DF8080089460DF1090000E086
:100CA0003046002F34DD06464046494601F010F834
:100CB00001460A4606F1080304200A26B2FBF6F6AE
:100CC00006EB860EA2EB4E02303203F8012C0A220C
:100CD000B6FBF2F202EB820EA6EB4E063036401E59
:100CE00003F8026DE9D1083F002F03F10806D7DDB4
:100CF000084601F001F802460B464046494600F01E
:100D000051FE00225B4600F045FC80468946CBE759
:100D10000DF10901401A0DF1090604E00199491E7F
:100D2000401E0191761C31783029F7D0662C02D113
:100D30000199491C03E0652C0CBF012100212B6B9C
:100D4000CB189842B8BF431E002B1ED4834204DA4E
:100D5000F05C3528A8BF392000DA30201946721E11
:100D600002EB010800E05B1E18F80199491E81455D
:100D7000F9D0392802D1705C401C7054002904D588
:100D80000198401C16465B1C0190019800B200902F
:100D90001BB29DF838103246284600F035F82FE097
:100DA000C61D002F3FF7BEAE30460DF10901401AB7
:100DB000009903468842C8BF0B46002B0DF1090677
:100DC0003FF52FAF8342BFF6FEAE0DF10900C05CC8
:100DD00007287FF7F8AE0F20F6E60000CBCCCC0C4E
:100DE0000000244002FCFFFFFFFF0F800000E03FF7
:100DF0000000F07FA08601000000F03F84D79741FB
:100E00000FB0BDE8F08F00002DE9F84783B006462B
:100E10008A461746984600F0CDF9B8F1000F406AAF
:100E2000356B90F8009002DC4FF00108BFA7BDF9C8
:100E300030404AF02000662808BF641C15D067289F
:100E400040F0848014F1040FC0F28680AC4280F23E
:100E5000838096F83800641C010702D4A845B8BF07
:100E6000454620B22D1A48BF00250FFA84FAF068D3
:100E7000B169BAF1000F25DC4A1C30234354002D20
:100E800003DC96F83800010703D5F06800F80290FB
:100E9000521C15EB0A0FB8BF6C4220B244194142F4
:100EA0004445B8BFA046B26171620FFA88F5F5619A
:100EB000F068B3692A463946184400F0FFF9641B0C
:100EC000B462C4E022B29045084417DA424639467B
:100ED00000F0F4F9B0694044B061AAEB0801002DBC
:100EE000716203DC96F838100A0705D5F16801F83D
:100EF0000090F069401CF061B562A8E0394600F04E
:100F0000DDF9B069002D5044A8EB040803DC96F825
:100F100038100A0703D5F16801F80090401CB06151
:100F20000FFA88F08542F068B369B8BFA8460FFA97
:100F300088F207EB0A01184400F0C0F9B0690FFA13
:100F400088F10844B061681A706280E0BAF1610FFC
:100F500014D14FF0700A16E0A84504DA96F838105C
:100F60000A0758BF45466D1E48BF0025BAF1670FF6
:100F700014BF4FF0450A4FF0650A04E0BAF1410F83
:100F800008BF4FF0500AB169F368481CB061002DEA
:100F900017F8012B5A5403DC96F838100A071BD5B2
:100FA000F168431CB36101F80090002D14DDA8F135
:100FB00001080FFA88F08542F068B8BFA8460FFA1A
:100FC00088F23946184400F079F9B0690FFA88F1CF
:100FD00008446D1AB0617562F068B1690844002C6C
:100FE00080F800A003D42B214170811C03E02D2147
:100FF00041706442811C00206A460AE023460A24AC
:1010000093FBF4F404EB8405A3EB450302F8013BE6
:10101000401C24B2002CF1DC012806DC4AF020023E
:10102000652A04BF302201F8012B48B9302001F8AD
:10103000010B07E0401E1DF80020303201F8012BA3
:101040000028F7DCF068B2691044091AF16196F8DB
:10105000380000F0140010280DD17169B0694118F2
:10106000706A4118F0694118B06A4118706B81428A
:10107000BCBF411A316204B0BDE8F087F8B505463F
:101080000E4617461C46002074B117F8011BB068C5
:10109000A847B06030B1F06A401CF0620020641EC6
:1010A000F3D1F2BD4FF0FF30F2BD00007072696EF7
:1010B00074665F733A20256E20646973616C6C6F8F
:1010C000776564007072696E74663A2062616420AC
:1010D000256E20617267756D656E74007072696E41
:1010E00074665F733A2062616420257320617267C1
:1010F000756D656E740000007072696E74665F7362
:101100003A2062616420256C7320617267756D6599
:101110006E74000000000000000000006E616E00B0
:101120004E414E00696E6600494E46003000B1F5F2
:10113000807F02D34FF0FF3070470170012070476D
:101140000078401E8041C043C00F70471A48704766
:1011500030B45368D418042B09DA41B1057804F887
:10116000015B10F8015B15B15B1C491EF3E753608E
:1011700030BC704738B514461D4661B1FFF7E8FF33
:1011800061686A6B204690476FF00102811A02D0B5
:10119000491E03D005E06FF0010032BD4FF0FF3073
:1011A00032BD0021616032BDDA6B1047024BE1E7CE
:1011B000014BF9E701487047F8010020C001002009
:1011C0000278C9B28A421AB11CBF10F8012FF9E7A0
:1011D00018BF002070470268531C036011707047ED
:1011E00080B500B906A005490B681BB12222002179
:1011F000984701E000F08DFD222002BD084D00203F
:10120000636F6E73747261696E742068616E646C72
:1012100065723A20626164206D6573736167650071
:1012200000F10103810704D010F8011B89B1810787
:10123000FAD10268B2F10131914311F0803F04BF4D
:1012400050F8042FF6E710F8011B11B110F8011B3C
:10125000FBE7C01A70470000C9B2830706D0521ED0
:1012600022D310F8013B9942F7D11FE0083A13D37B
:1012700002F1040241EA012141EA014150F8043B34
:10128000121F21BF4B40A3F1013C2CEA030C1CF0C0
:10129000803FF3D0C9B2001F083210F8013B521E44
:1012A00028BF91EA030FF8D818BF0120401E7047ED
:1012B00080B5FFF74BFF006C02BD000062B38B07E7
:1012C00008D0521E11F8013B00F8013B00F02480C9
:1012D0008B07F6D1830740F0208000BF103A07D378
:1012E00030B4B1E83810103AA0E83810F9D230BC68
:1012F000530724BFB1E80810A0E8081044BF51F814
:10130000043B40F8043BD20724BF31F8022B20F8FD
:10131000022B44BF0B7803707047121F17D35B007A
:1013200009D151F8043B20F8023B1B0C121F20F896
:10133000023BF6D20BE051F8043B00F8013B1B0ADC
:1013400020F8023B1B0C121F00F8013BF3D238BF00
:10135000121D521E24BF11F8013B00F8013BF8D8C2
:1013600070470000B3BBD9B1B2F5803F7DD2022AED
:101370001ED98C46B1FBF2F102FB11C31B0443EAF8
:101380001043B3FBF2FC02FB1C3380B240EA034380
:10139000B3FBF2F002FB103240EA0C40002370472E
:1013A000022A05D98446B0FBF2F002FB10C2704756
:1013B0004AB105D100F0010249085FEA30007047E8
:1013C00000220023704700F0A7BC0B0002000021A0
:1013D00000207047904271EB030CF6D3B3F5803FC9
:1013E0002FD2F0B5B3FA83F7B1FA81F4A7F10F0E5B
:1013F0003D1B5340CEF1200602FA0EF2F34153405A
:10140000B5F10F0746D80F3C2C444140C4F12006EB
:10141000A040F1414140B1FBF3F603FB1611A2FBE2
:101420000645001BA94102D2761E8018594180EA68
:10143000010221FA0EF362FA0EF200215A40304600
:10144000F0BD30B4B1FBF3FC03FB1C11A2FB0C4557
:10145000001BA94103D2ACF1010C8018594130BCEA
:1014600002460B46604600217047B2F1807F65D38B
:10147000F0B5B2FA82F7B1FA81F4C7F10F063D1B5D
:1014800022FA06F307F1110EF24120355A40B5F168
:101490000F07B8D94140C4F12006A040F1414140B6
:1014A000B1FBF3FC03FB1C11A2FB0C45001BA94183
:1014B00003D2BCF1010C801859410F2F12D30F3FFA
:1014C000C90341EA5041B1FBF3F603FB1611A2FB3D
:1014D0000645D4EBC030A94102D2761E801859418E
:1014E00046EACC3C07B34140C7F12006B840F14181
:1014F0004140B1FBF3F603FB1611A2FB0645001BAE
:10150000A94102D2761E8018594180EA010221FACF
:101510000EF3C7F1200462FA0EF20CFA07F05A40FB
:101520002CFA04F13043F0BD80EA010221FA0EF3F7
:10153000002162FA0EF260465A40F0BD8C46B1FBC3
:10154000F2F102FB11C31B0243EA1063B3FBF2FC8E
:1015500002FB1C331B024CEA002043EA1063B3FB7E
:10156000F2FC02FB1C331B024CEA002043EA10632E
:10157000B3FBF2FC02FB1C331B024CEA002043EAE3
:101580001063B3FBF2FC02FB1C324CEA0020002388
:1015900070470000B0B581EA030C0CF0004C40F23B
:1015A000FF7515EA11541DBF15EA1357AC42AF423F
:1015B00039E0E41923EA455343F48013C90241F0AA
:1015C000004141EA505EC7021100A7FB0202002859
:1015D0004FF00000EEFB01204FF00001E3FB07217C
:1015E00018BF42F00102401800214941E3FB0E01FF
:1015F000A4F580640F0302D252004041494154F1E6
:1016000001046CDD470872F1004250F1000051EB1B
:101610000451A1F580115CBF41EA0C01B0BD4CEA58
:1016200005510020B0BD05EA1357AC4214BFAF42CC
:1016300041E050EA410E1CBF52EA430E02E061460F
:101640000020B0BD24423C441BD15FEA070EF6D017
:10165000090302BF01460020AEF1140EB1FA81F772
:10166000AEEB070401FA07FE0C37C7F1200100FAC0
:1016700007F7C8404EEA000E23EA455343F48013AF
:10168000A2E733F00043B3FA83F704BFB2FA82FE55
:1016900077440B3FE41BB7F1200E2FBF02FA0EF385
:1016A000BB40C7F1200E22FA0EFE38BF43EA0E03FC
:1016B000BA40641C82E750EA410E14BF52EA430E5E
:1016C0006FF000014FF4001717EB430F8ABF194664
:1016D00017EB410FB5E74CEA05510020B0BDD4F13E
:1016E0000104B4F120070FDAC4F12007520828BF23
:1016F00042F0010210FA07F501FA07F7E1BF2A43A9
:10170000E0403843E1400FE0352C98DCC7F120047D
:1017100052EA400220FA07F218BF42F0010231FA01
:1017200007F0A1400A43002172F1004250F100008D
:1017300051EB0C01B0BD000010B5144600F002F8EA
:10174000226010BDC1F30A5343B14A0012F5001FD5
:1017500028D2A3F2FE32A1EB0251704750EA410CAD
:1017600020D001F0004C31EA0C01B1FA81F204BF43
:10177000B0FA80F3D2180B3AB2F120032CBF00FA72
:1017800003F1914041EA0C013EBFC2F1200C20FA66
:101790000CF319439040524240F2FD33D21A01EB50
:1017A00003517047002270474FF4001C1CEB410F9F
:1017B00094BF1CEB430F09E041EA030C50EA4C0CC8
:1017C00052EA0C0C03D2994208BF9042704714BFF2
:1017D0008B428242704700004FF4001C1CEB410F0B
:1017E00094BF1CEB430F09E041EA030C50EA4C0C98
:1017F00052EA0C0C03D28B4208BF8242704714BFDE
:101800009942904270470000124254D440F2FF7C4B
:101810001CEA11530FD0634531D09B1863453CBF80
:1018200001EB0251704701F0004141EA0C510020E8
:10183000AFF30080704750EA410320D001F0004C24
:1018400091EA0C011CD0B1FA81F30B3B9A420DD9FD
:10185000D21A994051EA0C01C3F1200C20FA0CFC79
:1018600061449840531C40F2FF7CD7E7914041EA25
:101870000C01C2F1200C20FA0CF319439040704780
:10188000B0FA80F31533202BE0D3202AEED3203A90
:10189000203B9A4209D9D21A00FA03F141EA0C011D
:1018A0000020531C40F2FF7CB8E700FA02F141EA45
:1018B0000C0100207047524240F2FF7C1CEA115399
:1018C0000DD06345DBD0B2EB030C3CBFA1EB025162
:1018D00070470CF1010221EA035141F4801150EAF2
:1018E000410CCCD001F0004C352A27DC30B481EA21
:1018F0000C01B2F1200309DAC2F12003044601FA17
:1019000003F5D0402843D1409C400CE0C3F12002B5
:10191000450020FA03F418BF44F0010421FA03F053
:1019200091400C43002174F1004550F1000051EB4F
:101930000C01244230BC7FF47BAF7047614600202D
:1019400076E70000C1F30A5340F2FE329B1A14DD21
:10195000D3F120034FEAE17208DDC90241EA505198
:1019600041F00040D84080185040704703F2E13009
:1019700010B1D24382F00040704700207047000051
:10198000C11768B14840401AB0FA80F29040D21CAA
:10199000C907C2F5846241EA025202EBD021400538
:1019A0007047000070B44FF0004591EA030F40F11A
:1019B000B5816B40841A71EB030603D2001BB14161
:1019C000121973414FF4001C1CEB410F34BF7CEB28
:1019D000430442E00C0DA4EB1356352E4FDC45EAD0
:1019E000C323DB0A45EAC121C912B6F120050DDD8A
:1019F00063FA05F6EB4086EA0305124218BF45F08C
:101A00000105C01851F100010CD213E062FA06F58D
:101A1000F2405540F3415A40B340F3405A408018D9
:101A2000594107D349085FEA30005FEA350528BF0E
:101A300045F0010501F58011420875F1004250F1B1
:101A4000000041EB04514E0016F5001F70BC38BF7A
:101A500070470020090D090570471CEB410F10D29B
:101A600052EA43060BD0BCEB410F05D80C0DAB433B
:101A7000661E342EB6DD02E0AB438018594170BCBF
:101A8000704770BC70470000F0B540F2FF7581EA06
:101A9000030C0CF0004C15EA11541DBF15EA135746
:101AA000AC42AF42E5E0BC41C1F31301C3F3130301
:101AB000801A994143F4801304D2641E40004941C6
:101AC00080185941C90241EA5051B1FBF3F603FBBA
:101AD0001611A2FB0675D7EBC020A94102D2761ED3
:101AE00080185941C90241EA5051B1FBF3FE03FB92
:101AF0001E11A2FB0E75D7EBC020A94103D2AEF197
:101B0000010E80185941890241EA9051760546EA52
:101B10008E2EB1FBF3F603FB1611A2FB0675D7EB75
:101B20008020A94102D2761E80185941C90241EA9B
:101B300050514EEA060EB1FBF3F603FB1611A2FB61
:101B40000675D7EBC020A94102D2761E80185941F4
:101B5000C90241EA5051B1FBF3F703FB1711A2FB95
:101B60000735D3EBC020A94167F100070CBF004245
:101B700047F0010766F3D5274FEA1E31B80814F580
:101B8000806412DDBD0775F1004250EB0E5051EB41
:101B9000045111F5801F5CBF41EA0C01F0BD4CF00F
:101BA0007F6141F0E0410020F0BDBD076D0840EAD3
:101BB0000E5041F48011D4F10104B4F120060ADA88
:101BC000C4F120060200E04001FA06F3E1401843A8
:101BD000B24015430EE0342C13DCC6F1200445EA74
:101BE00040056D0820FA06F2154321FA06F0A140DF
:101BF0000D43002175F1004250F1000051EB0C0142
:101C0000F0BD00205FEA0C01F0BDCFB992185B4136
:101C1000B3FA83F704BFB2FA82F6BF190B3FB7F1EC
:101C200020062FBF02FA06F3BB40C7F1200622FAB6
:101C300006F638BF3343BA401CB1E419641E33E7DB
:101C40007F4231F00041B1FA81F404BFB0FA80F66E
:101C5000A4190B3CB4F120062FBF00FA06F1A140F5
:101C6000C4F1200620FA06F638BF3143A0403C1BE1
:101C70001AE7AC421ABF05EA1357AF4212E050EA26
:101C800041061CBF52EA4306BFE750EA410730460F
:101C900061461CBF41EA0551F0BD52EA430C08BF42
:101CA000C143F0BD00204FF4001616EB410F98BF62
:101CB00016EB430F08BF16EB410F24BFC14305E0ED
:101CC00016EB430F0CBF61464CEA0551F0BD000016
:101CD000400D491840EA81200CD2490DA1F58061E0
:101CE000491C40F0004005DBD1F11F0154BFC84042
:101CF000C017704700207047014648B1B0FA80F124
:101D00008840C91CC1F58461090501EBD02140055B
:101D10007047012000F0B6B870470000841A71EBDC
:101D2000030604D26E40001BB141121973414FF4F7
:101D3000001C1CEB410F34BF7CEB430682E00C0D12
:101D4000A4EB1356362E7BDC012E45EAC32341DC7F
:101D500043EA525312BFD20292025B08240545EABD
:101D6000C12141EA5051D2EBC020994125D407D17D
:101D7000B0FA80F610FA06F162D00020203608E0B2
:101D8000B1FA81F6B140C6F1200220FA02F2114305
:101D9000B0404FEAF474B4EB465434F001064FEA15
:101DA00074040AD8D6F50016760D04F00044F0400D
:101DB00061FA06F25040F1404840C00A40EA415002
:101DC00021F0004128BF5FEA500550F1000044EBCC
:101DD000D12135E0DB0A45EAC121C90AB6F1200567
:101DE0000EDD42EA0242120CC5F1200603FA06F6A5
:101DF000EB4042EA06056D42984161F100010DE0B9
:101E000062FA06F5F240554063FA06FC82EA0C02DB
:101E1000F3405A406D42904161EB030111F4801F81
:101E200005D1641E620502D06D004041494121F494
:101E30008011430875F1004350F1000041EB04515B
:101E400070BC70471CEB410F15D223F0004352EADF
:101E500043060BD04FEA4C0CBCEB410F04D80C0DE1
:101E6000661E342EB7DDEBE7801A994150EA410631
:101E700008BF0021E4E708BF1CEB430F28BF6FF049
:101E80000001DDE780B5AFF30080024A11001820A1
:101E9000ABBEFBE726000200F0B585B050260B9DD7
:101EA00025B986F3118800F056FBFEE70C9C24B997
:101EB00086F3118800F04FFBFEE75C270097009F38
:101EC0005C2F04D086F3118800F045FBFEE70A9EE4
:101ED0002563022584F85950029400250395009645
:101EE00004AD019500F034F8204600F077F804982E
:101EF00005B0F0BD2DE9F8430646174684B0884684
:101F00009946B80000F070FB05001CD05C2000F082
:101F10006BFB040014D00D990C982563002284F803
:101F2000592003920191009002944B463A46414653
:101F3000304600F00DF8204600F050F8012004E093
:101F4000284600F0DAFB4FF0FF3005B0BDE8F08323
:101F50002DE9F0470A9D81460C461746286B9846A6
:101F6000A522B90000F01AFC286B00EB87010F1FB7
:101F7000FF08FF000021605C6A1882F83400605C92
:101F800010B1491C1029F6D3089E002085F84300A3
:101F9000372E099C88BF372605F14C0AEE62CAF835
:101FA0000400CAF80060281D00F022FC05F11800AA
:101FB00000F01EFC2D61C6F13806AE616D62002096
:101FC000CAF808008AF80C0042464946384600F034
:101FD0004BFC286004B12560BDE8F0872DE9F04195
:101FE00000F06BF8DFF86055DFF86085E86C401CA6
:101FF000E8641426A86A28BBAC62E86C012829D1E1
:10200000002706FB07F0404400F0E5FB7F1C382F5B
:10201000F7D305F1740000F0DEFB05F188073846C0
:1020200000F0D9FB284600F0D6FB05F1140000F0C3
:10203000D2FB05F1380000F0CEFB05F17400E86238
:102040002F6307E0A86D28B9E16AA86AC26A9142C5
:1020500028BFAC62A86E401CA8666064E06A696D27
:10206000814238BF68654643211D08EB060000F039
:10207000C2FB00F08CFCA86D30B100F096F903D2E1
:1020800000F01EF800F067FABDE8F08180B578B185
:10209000DFF8B424116F11B100F05AFAFEE7116FA6
:1020A000491C1167002100F06AFA00F04CF818B9D9
:1020B00000F006F800F04FFA01BD044600F04EBCF7
:1020C000DFF8AC144FF080500860704780B586B0E0
:1020D00000200590049003AA04A905A800F085FD3E
:1020E0000599049802910022009201900023039A1E
:1020F0000FF2EC410FF24130FFF7CEFE98B100F045
:102100008BFD5021012810D181F3118800F023FAB2
:10211000DFF8B8044FF0FF31C1660121816500216D
:10212000016500F0C9FB07B000BD10F1010FFAD145
:1021300081F3118800F00FFAFEE7DFF89004016FD9
:10214000491C0167704770B5DFF8FC63306F0024ED
:10215000002520B900F043F800F0FDF9FEE700F09B
:10216000FDFB306F401E3067316F002936D1F06CB7
:10217000D0B933E0F168CC6800F035F800F0B2F97E
:10218000E06A716DDFF84824814238BF706514231E
:102190005843211D104400F02EFBE06AB16ACA6A60
:1021A000904224BF0120306630680028E2D10CB193
:1021B00000F07FF9F46D3CB100F01DF808B101208A
:1021C0003066641EF8D1F565306E38B1DFF804046E
:1021D0004FF080510125016000F0BDF9C0E15021B0
:1021E00081F31188704704F1180000F029BBDFF873
:1021F000DC03006D70472DE9F843DFF84C73386F4E
:10220000002600284ED13C6D641C3C6510D1F86A54
:10221000006820B1FFF7E3FF00F09DF9FEE7F86AE0
:10222000396BF9623863786E401C786600F041F9CA
:10223000F86EDFF89C9384424FF0140824D319E021
:10224000281D00F0FDFAA86A18B105F1180000F089
:10225000F7FAE86A796D814238BF786508FB00F0CB
:10226000291D484400F0C7FAE86AB96ACA6A904270
:1022700028BF0126F86A006880B1F96AC868C56895
:1022800068688442DCD2F866B86AC06A08FB00F16C
:1022900059F80100022808D3012606E04FF0FF316B
:1022A000F966F1E7F86D401CF865386E00B101265B
:1022B0005AE118B5DFF89022106F10B101211166B4
:1022C00011BD1066516DDFF8083300E0491E14247B
:1022D0004C43185930B90029F8D1FFF780FF00F0BE
:1022E0003AF9FEE7181900F1080443685B68436097
:1022F000A34204BF5B6843604068C3689362516552
:1023000011BD10B50C4610B900F022F9FEE700F03F
:102310001BF800F07CFA2046BDE81040FFE70121E1
:102320002DE138B50D46144610B900F011F9FEE75D
:1023300000F00AF800F05FFA0CB14FF0FF352146CB
:102340002846BDE834401AE1DFF88022936A03F1A1
:102350001801704738B5C068C46814B900F0F8F8BF
:10236000FEE7FFF740FFDFF86452286F40B900F046
:10237000B9F800F014F838BF6A6500F0FBF802E025
:1023800004F11801284600F036FAA86AC16AE06A2A
:10239000814202D20120286632BD002032BDE26AAD
:1023A000686DDFF82C3290427047A96AC86AE16A0A
:1023B0008842704714204243211D981800F01BBA30
:1023C000DFF808124A6E0260096D41607047F8B587
:1023D00004460D46502014B900F0BBF8FEE715B9CD
:1023E00000F0B7F8FEE700F0B9FADFF8E001016DA0
:1023F00062682E688B1A16F1010F0ED0476ED4F862
:1024000000C0674501D091420BD2B34207D2F31A04
:102410002B60416E2160006D6060002402E00020AE
:102420002860012400F0B3FA2046F2BDDFF89C11C9
:1024300001200866704700002DE9F041DFF83041C7
:10244000DFF80881DFF884714FF0805511E000F06B
:1024500085FA386AC668301D00F0F2F9F86C401E43
:10246000F864786B401E786300F091FA304600F013
:102470000BF8786B0028EAD1D8F800100229F8D3BD
:10248000256000F068F8F4E710B5044694F85900A8
:1024900040B9206B00F031F92046BDE8104000F053
:1024A0002CB910BD0128F7D00228FAD000F050F85E
:1024B000FEE72549C86A006810B94FF0FF3203E013
:1024C000C86AC268D0684268CA667047DFF8FC1004
:1024D000886D08B901207047086F08B9022070475D
:1024E00000207047201D00F0ABB938B5044600212C
:1024F00044B3154DA86A5022844204D082F3118857
:1025000000F029F8FEE7206D20B982F3118800F071
:1025100022F8FEE7E26AE36C401E9A42206511D081
:1025200080B9FFF7DFFFE06CDFF8A430E062C0F1B4
:102530003800A061E26A686D904238BF6A65FFF7B3
:1025400039FF0121084632BD9C4A0020583E002038
:10255000502080F31188BFF34F8FBFF36F8F704708
:1025600000F015FA284670BD3046BDE8F283000041
:1025700004ED00E014204243211D98187047F8B57F
:10258000124D2F6D0C46A96A0646081D00F058F939
:1025900016F1010F05D124B1A86A011D05F138001B
:1025A0001AE0A86AF6194660BE42A86A05D2011D63
:1025B000286BBDE8F44000F02AB9011DE86A00F07C
:1025C00026F9E86E864238BFEE66F1BD9C4A0020CF
:1025D000583E002004ED00E0BDE8F44000F00BB9E7
:1025E00049444C45000000002DE9F8430446FFF73C
:1025F000A4FD694FB8684FF00009002508BB07F13A
:10260000180307F1180113F0070F4FF470500A4632
:1026100005D0CA1DD208D200C2F570500818801823
:102620000838C008C0003A607D60B8604560056049
:10263000811A5160106050683861F8604FF00040B6
:1026400078614FF050087869044233D194B308346C
:1026500014F0070F1FBF04F1080004F00704041B67
:1026600014F0070F02D000F041F8FEE714B3F86849
:10267000A0421FD33E6839467068A04223D230681A
:1026800000281CBF31460646F6D11CE0301D025121
:102690007460084600F05BF87168F8683A69401A9F
:1026A000F860904238BF38617869014371603560E5
:1026B00009F00705FFF747FD15B100F017F8FEE731
:1026C0004846BDE8F283B8688642F3D032680868AD
:1026D0000A6000F108097268121B112ADCD3311953
:1026E00011F00700D2D000F001F8FEE788F311885E
:1026F000BFF34F8FBFF36F8F7047002800D1704733
:1027000038B5A0F10804244D61686A69502311426C
:1027100002D100F015F8FEE7206810B100F010F8C3
:10272000FEE791436160FFF708FDE96860684118C2
:10273000E960204600F00BF8BDE83140FFF703BD2B
:1027400083F31188BFF34F8FBFF36F8F704730B59E
:1027500011490A4600E0224614688442FBD35368BC
:10276000D418844203D14068C318536010464368AC
:102770001468C518A54208D189688C4204D06168E4
:10278000CB184360246800E00C460460824218BF06
:10279000106030BD000000004002002062F30F22F4
:1027A00062F31F4200B500BF1300964694461039ED
:1027B00028BFA0E80C50FAD85FEA417C28BF0CC0C3
:1027C00048BF40F8042BC90728BF20F8022B48BF98
:1027D00000F8012B00BD00F1080141604FF0FF310E
:1027E000816000F10801C160016100210160704752
:1027F00000210161704742684A6093688B6093686A
:102800005960916008610168491C0160704730B5EA
:102810000A6812F1010F08BF036907D000F108032D
:1028200000E023465C682568AA42FAD25A684A60EA
:1028300091608B60596008610168491C016030BD7E
:102840004368016982689A60836842685A604A688E
:10285000824204BF82684A60002202610868401E0A
:1028600008600868704700004908490010B5A0F1E9
:1028700020034FF080749961DC611A600FF211013E
:1028800059616FF0020140F8241D203810BD00008E
:1028900063494A68502012F1010F06D080F3118875
:1028A000BFF34F8FBFF36F8FFEE780F31188BFF345
:1028B0004F8FBFF36F8FFEE77CB55A495A4B0A68BA
:1028C00050209A4202D100F082F8FEE70B68574C84
:1028D000A34202D100F07BF8FEE7554A1478019438
:1028E000FF231370072513784D4C8DF800309DF8A9
:1028F0000030A56003F05003237006E05B1EA36068
:102900009DF800305B008DF80030A3689DF8005002
:102910002E06F3D4C3F10705042D02D000F057F8BA
:10292000FEE71B0203F4E063A36001981070086ADD
:1029300040F470000862086A40F07040086200F0DD
:1029400081F80020606000F04FFB3A48016841F0D8
:102950004041016000F038FB002076BD502080F33C
:102960001188BFF34F8FBFF36F8F2D494A68521CF8
:10297000012A4A600AD130490A68130606D080F35A
:102980001188BFF34F8FBFF36F8FFEE77047244965
:10299000486838B9502080F31188BFF34F8FBFF3D8
:1029A0006F8FFEE7401E486008BF80F311887047B4
:1029B00080B5502000F00BF8FFF71DFC18B11E4940
:1029C0004FF080500860002181F3118801BD80F331
:1029D0001188BFF34F8FBFF36F8F7047EFF3058000
:1029E000502110280E4A0BD3144B185C13789842D0
:1029F00006D281F31188BFF34F8FBFF36F8FFEE7CD
:102A000090680F4A136803F4E063984206D281F39A
:102A10001188BFF34F8FBFF36F8FFEE77047000041
:102A2000A401002000ED00E071C20F4170C20F410F
:102A300000E400E034EF00E004ED00E0F0E300E04B
:102A40000CED00E007480021016081604FF47A73CB
:102A500005490A68B2FBF3F35B1E4360072101607E
:102A6000704700BF10E000E0BC010020EFF30580DC
:102A7000002804BFEFF31080002807D1DFF85C11B5
:102A80000868022803D1EFF3118000B182E00868E2
:102A900010B901220A6070474FF0FF307047000004
:102AA00080B500F09EF804BFEFF31080002807D136
:102AB000DFF828110868022803D1EFF3118000B174
:102AC00009E00868012805D102220A60FFF7FEFA32
:102AD000002002BD02E06FF0050002BD4FF0FF30A4
:102AE00002BDF0B585B000230493EFF30583002BFE
:102AF00004BFEFF31083002B49D1DFF8E0301C68EE
:102B0000022C03D1EFF31183002B40D103003ED000
:102B10000023802518268DF80C3003AC5AB31368B7
:102B200003B11C4693691BB11E0004D0392E02D29A
:102B30001379DF0701D500202AE0536903B19D080E
:102B4000D2F80CC0976887B1BCF15C0F1FD3126933
:102B5000002A18BF002B1AD001920B46029700964C
:102B60002A462146FFF798F910E0BCF1000F04BF98
:102B70001269002A0BD104AB019300960B46AAB24E
:102B80002146FFF7B7F9012801D0002004900498EE
:102B900005B0F0BD6FF00500704710B500F015F8F6
:102BA00004BFEFF31081002905D100F012F805D120
:102BB000EFF3118111B16FF0050403E0002408B1B7
:102BC000FFF764FA204610BD0025EFF305810029C8
:102BD000704702490A68022A70470000004D002031
:102BE0000446EFF3058000287047094B036003F1AA
:102BF0005C000860802010607047064B036003F1A2
:102C00005C0008604FF480701060704700000000A6
:102C100014470020B842002010B586B000F066F9D5
:102C2000DFF81843A068D0B100210591049103AAF0
:102C300004A905A8FFF7E1FF059804990290022274
:102C4000009201910023039A0FF2F8210FF2710014
:102C5000FFF722F9E06010B1012006B010BD00F0CE
:102C60003CF9FEE785F31188BFF34F8FBFF36F8FF9
:102C70007047F8B5044684B01E46002014B900F031
:102C80002CF9FEE7DFF8B472BD68BDB106290091EA
:102C9000019202940CDAFFF719FC0228B86807BF0A
:102CA0000A9A002300230022694600F02CFA05E06E
:102CB000002332466946284600F0BDFA05B0F0BD53
:102CC00080B59E490A68106800281DBF0021D068A1
:102CD0000068012100F003F800F0A2F8F1E7FEB56A
:102CE00006460C46FFF729FA01A800F042F805460F
:102CF000019800283AD1914F24BBB54227D3FFF762
:102D000022FA3868C168CC68201DFFF799FDE06998
:102D1000012813D1A16933462A468919204600F0BB
:102D200064F858B10020009000233246002120466C
:102D3000FFF79FFF10B900F0D0F8FEE7616A204668
:102D40008847F7BD786801684C1EA441E40FB86855
:102D50002246711B00F0F6FBFFF7F5F940B9784900
:102D60004FF080500860FFF77FFFF7BDFFF7EBF9EA
:102D7000F7BD2DE9FC410446FFF739FA6F4E0546D1
:102D8000306985420BD30020206035612846BDE8BC
:102D9000F68178603F61391D3068FFF738FD316892
:102DA0000868E8B1C868D0F80080C768381DFFF728
:102DB00047FD796A38468847F8690128EFD1B86934
:102DC00040448045E5D30020009000234246002186
:102DD0003846FFF74EFF0028E1D100F07EF8FEE70D
:102DE0007068306071600120CEE738B500248A42F7
:102DF00041600061514D06D38169D21A8A4206D2E0
:102E0000011D686807E09A4203D2994201D3012468
:102E100003E0011D2868FFF7FAFC204632BD0000E0
:102E200038B586B0454C04E0134689182846FFF7AC
:102E3000DCFFA068002202A900F04CFA00284AD06A
:102E40000298002803D505990498039A90470298A0
:102E50000028EED4049D686910B1281DFFF7F0FC2E
:102E600001A8FFF786FF024602980928E1D8DFE8AB
:102E700000F006060605232A06060523D9E703996E
:102E8000A8690B4641182846FFF7AFFF0028D0D0AD
:102E9000696A28468847E8690128CAD1002100915B
:102EA000039AA869821800232846FFF7E2FE00284B
:102EB000BFD100F012F8FEE70399A9610029B3D150
:102EC00000F00BF8FEE795F82C000028B1D1284659
:102ED000FFF713FCADE707B030BD502080F3118839
:102EE000BFF34F8FBFF36F8F704700001CB5FFF724
:102EF00035FD124CA068E0B904F11400FFF76BFC3B
:102F000004F12800FFF767FC04F11400206004F1CD
:102F10003C0304F12800606004F18C020020009062
:102F200010210A2000F0AAF8A06010B107A100F05B
:102F3000F4FABDE81340FFF72ABD000070490020F5
:102F400004ED00E0546D722053766300546D7251AD
:102F500000000000EFF30980BFF36F8F264B1A6863
:102F60001EF0100F08BF20ED108A20E9F04F10600E
:102F700009B44FF0500080F31188BFF34F8FBFF3B7
:102F80006F8FFFF796F94FF0000080F3118809BCAE
:102F900019680868B0E8F04F1EF0100F08BFB0ECD9
:102FA000108A80F30988BFF36F8F7047124B19683E
:102FB0000868B0E8F04F80F30988BFF36F8F4FF0D7
:102FC000000080F3118870470C480068006880F3A7
:102FD00008884FF0000080F3148862B661B6BFF332
:102FE0004F8FBFF36F8F00DFDFF81400016841F4EB
:102FF0007001016070470000C44A002008ED00E045
:1030000088ED00E038B504000D4602D100F073F8F9
:10301000FEE7FFF7A3FCE26B206C216842438818AF
:1030200060600020A0632068E26BA060521E206CEC
:10303000216842438818E0604FF0FF3104F14400FA
:103040000170417075B92069A0B104F11000FFF75B
:1030500081F978B1DFF8E4144FF08050086000F097
:10306000D2F907E004F11000FFF7B5FB04F12400EA
:10307000FFF7B1FBFFF78BFC012032BD7CB51C468E
:10308000502320B983F3118800F0BDF9FEE724B97D
:1030900083F3118800F0B7F9FEE72AB129B983F369
:1030A000118800F0B0F9FEE761B90093009E502E40
:1030B0000DD1069B012584F84650009400F00CF8D1
:1030C000204676BD83F3118800F09DF9FEE783F377
:1030D000118800F098F9FEE738B5049D1C4601B947
:1030E0002A462A60E863296428460121FFF78AFFFF
:1030F00085F84C4031BD502080F31188BFF34F8FCD
:10310000BFF36F8F70472DE9F64782B004461E4625
:10311000502714B900F075F9FEE75FEA010A01D102
:10312000206C70B9022E02D1E06B01280CD1FFF7A0
:10313000CDF900285ED1039800285BD000F061F93A
:10314000FEE700F05EF9FEE700F05BF9FEE70399A9
:1031500007F11000FFF7D5F8384600F0A1F9FEF7A7
:10316000F2FF18B9C8F8009000F04DF9FFF7F6FB30
:10317000B86BF96B884242D3022E40D003980028E6
:1031800035D014B900F029F90124FFF700FCFEF74F
:10319000D4FFFFF7E3FB07F1440000F021F904BF7F
:1031A0000022027000F021F904BF00224270FFF7F4
:1031B000EEFB00F03CF888BBFFF7D0FBB86BF96B77
:1031C000884214BF00250125FFF7E1FB002DBED189
:1031D000384600F065F9FEF7B6FFC7E718B1C8F842
:1031E000009000F010F9FFF7D2FB01201CE0FFF780
:1031F000CEFB18E02746002400F0EAF8B6E7324696
:103200005146384600F004F9796A0029E6D007F102
:103210002400FFF79FF80028E1D1E4E7384600F0EA
:103220003FF9FEF790FF002004B0BDE8F08703A946
:103230006846FFF7CCB82DE9F843044688461546A2
:103240001E46502714B900F0DCF8FEE7B8F1000F75
:1032500001D1206C20BB022E02D1E06B012822D1CB
:10326000FFF7BCFBEFF3118900F02AF801D3022E1F
:1032700021D194F9457032464146204600F0C8F805
:1032800017F1010F12D1606A98B104F12400FFF721
:1032900061F8002818BF002D0BD00120286008E03D
:1032A00000F0AFF8FEE700F0ACF8FEE77F1C84F812
:1032B0004570012000E0002089F31188BDE8F28309
:1032C00087F31188BFF34F8FBFF36F8FA06BE16B54
:1032D000884270472DE9F74306460F4600245025E3
:1032E00026B985F3118800F08EF8FEE70FB9306C2F
:1032F00048B9FFF7EBF878B9029868B185F31188FF
:1033000000F081F8FEE785F3118800F07CF8FEE715
:1033100000F075F8FEF717FFFFF720FBB56B00F024
:1033200057F825B90298B8B9FFF731FB4DE0394697
:10333000304600F0A1F86D1EB563306940B106F16A
:103340001000FFF707F818B1C8F8009000F05BF81C
:10335000FFF71DFB012039E014B900F03EF801240D
:10336000FFF715FBFEF7E9FEFFF7F8FA06F1440058
:10337000415711F1010F04BF0022027000F035F82F
:1033800004BF00224270FFF702FB02A9FFF750FFC3
:103390000028304610D100F0B5F80028B8D000F071
:1033A00029F800F02CF8FEF7CEFE0028B4D1C8F8BA
:1033B000009000F028F8AFE700F072F8FEF7C3FEC7
:1033C000304600F09FF80028A6D00020BDE8FE831C
:1033D000DFF868814FF0805970476846FEF7F0BF0C
:1033E00090F9001011F1010F704790F9011011F1DF
:1033F000010F7047029906F12400FEF782BF3046A4
:103400004EE087F31188BFF34F8FBFF36F8F704784
:10341000F8B506461546B46B326C002742B93168E0
:1034200031BB7068FFF761F80021074671601FE04B
:1034300065B9B068FDF742FFB068316C0844716847
:10344000B060884214D33068B06011E0F068FDF7D6
:1034500035FF306CF16840420144F16032689142BE
:1034600002D271680844F060022D01D104B1641EDB
:10347000641CB4633846F2BD026C002A0B4600D1CE
:10348000704710B5C16844681144C160A14224BFAF
:103490000168C160C168BDE810401846FDF70EBF65
:1034A000F8B50546FFF75AFA05F1440494F90160AE
:1034B00070B2012815DB686A98B105F12400FEF7A7
:1034C00049FF08B1FEF7B2FF761EF1E72869A0B107
:1034D00005F11000FEF73EFF08B1FEF7A7FF7F1EC3
:1034E00008E04FF0FF366670FFF751FAFFF736FA43
:1034F00094F9007078B20128E8DA2670BDE8F1404E
:10350000FFF745BA10B50446FFF728FAA06B441E32
:10351000A441FFF73CFAE00F10BD10B50023084CA2
:1035200054F833201AB15B1C082BF9D310BD44F8B2
:10353000331004EBC301486010BD000004ED00E04F
:10354000784C0020F8B504460D461646FFF706FAFB
:1035500004F1380797F90C0010F1010F04BF0021A6
:10356000397397F90D0010F1010F04BF0021797331
:10357000FFF70DFA386828B93246294604F12400CD
:10358000FEF7CFFE2046BDE8F24089E7F8B504001B
:1035900016D004F13C05687820B900212970204636
:1035A00000F022FB00F080F800F06FFC014660683C
:1035B000DFF89822904205D2DFF89402814205D2CA
:1035C0000120F2BDDFF88C028142F9D3DFF88802D6
:1035D000B1FBF0F320684668B60943EA86164660F8
:1035E0002668376A6068904206D34FF4967043436A
:1035F0004FF47A70B3FBF0F35B1CBF0943EA871307
:103600003362491E2368DE696768974206D27F00ED
:1036100000F044F8042913D2042111E0A06820B975
:1036200007EB470700F03AF805E01920474300F0A0
:1036300035F841F4804108050CBF012141F40041F7
:10364000DFF8240206400E43DE6121680A68E06963
:1036500022F0C0020243206A02430A602168DFF8B8
:103660000C028A68024020690243E06802438A60D3
:103670002168CA68A3696069120A034343EA022207
:10368000CA602068016841F00101016000206860A3
:103690002020687000202063A870F2BDB1FBF7F114
:1036A000491CC1F30B017047242068702068016831
:1036B00049084900016070472DE9F84300F0DEF841
:1036C00004F13C0605467078202807D1009519239F
:1036D0000122DFF89C1100F07BF9002876D13078C8
:1036E000012873D00121317000F099F800F088F8BA
:1036F00070701020B07000207060C4F82480A4F8AE
:103700002A90608D00F06DF8E16A08291CBF01293C
:10371000814205D0206B122804D100F03CF901E071
:1037200000F08DF800950022DDF82080434600F07F
:103730004DF9002848D12069B0F5804F04D12168A7
:1037400007F0FE070F6111E0F809216800F006009C
:1037500040F0F00008612B464246DFF8181100F0F7
:1037600049F9002830D12068FFB207612B4600F0EC
:103770003FF9002828D100F04AF8208D002828D0F1
:103780002A4600F055F8D0B9606A226801781161C4
:1037900000F012F9208D401E208521684A695307E8
:1037A00006D580B220B1606A02780A6100F01EF886
:1037B0002A464146204600F0B6F90028DDD0706860
:1037C000042801D100F006F9012000E00220BDE844
:1037D000F28300F0FFF8202070700020B07030708D
:1037E000F5E72085DFF89000E0627047606A411CD1
:1037F0006162608D411E6185208D411E218570476B
:103800002068016821F40061016021207047009068
:103810002068416900918069009000997047206894
:103820000168CA0703D4026842F0010202607047CF
:103830004146204600F05BB941F480610160206898
:10384000026842F48072026070470000A1860100A5
:1038500080841E0000093D0040420F000646884655
:1038600091469A4600F05CBB0030FFFF007CFFFFF2
:1038700002001000080001000000FFFF04460F4690
:103880009046994600F04CBB2DE9FE4F04468B460E
:10389000FFF7E6FF04F13C0705467878012620286B
:1038A0005AD1DFF80081009519230122414600F02A
:1038B0008FF8002850D1387801284DD03E70FFF79E
:1038C000AEFFCDF804900BF0FE0B2068016821F4E8
:1038D00000610160242078706FF4806900207860B6
:1038E000FFF780FF00F057F8009500F06DF8002812
:1038F00030D12068C0F810B000F012FB05462168F6
:10390000486949697A784008890AA02A00F00100CC
:1039100001F0010123D0084321D100F001FB401B3D
:10392000824502D3BAF1000FE9D1A0207870E6E712
:10393000192300F039F800200090012200F050F81F
:103940000095414600F05FF820B9202078700020F3
:10395000387002E0012000E00220BDE8FE8F202048
:103960007870206841698A07E2D400F047F819238B
:103970002068C0F8149000950122414600F028F814
:103980000028E7D10198761C8642ABD320207870BE
:1039900000203870DEE72068016841F48071016022
:1039A0007047000002001000016841F400710160DE
:1039B00070470069616A0870606A411C6162608DCD
:1039C000411E618570470096534600224FF0011159
:1039D000204618E02068016841F4007101607047DA
:1039E00020684169009180690090204600997047E5
:1039F00042460149204634E002000100026842F4D8
:103A00000072026070472DE9F8430F46089C3D02A2
:103A10000646904699462D0E3068012D0CBF406930
:103A20008069384080B2B9B288420CBF01200020C2
:103A3000404513D119F1010FEED000F071FA001BCF
:103A4000814502D3B9F1000FE6D100203063202177
:103A500006F13C0000F088F8012000E00020BDE8FD
:103A6000F2832DE9FC410F463D0206461446984676
:103A70002D0E3068012D13D14169394089B2BAB297
:103A8000914213D041694A0512D5FFF7B7FF6FF491
:103A900080603168486100F020F841F0040116E0D0
:103AA0008169394089B2BAB29142EBD1002012E06B
:103AB00014F1010FDDD000F033FAA0EB08008442CE
:103AC00001D3002CD5D100F008F841F0200141606D
:103AD000002202700120BDE8F68100203063202121
:103AE00006F13C004170002181704168704770B55B
:103AF00005460C46164628684169080611D4284632
:103B000000F03CF858B914F1010FF4D000F008FAB5
:103B1000801B844201D3002CEDD100F020F801205D
:103B200070BD002070BD70B505460C46164628686D
:103B30004169480711D4284600F020F858B914F11B
:103B4000010FF4D000F0ECF9801B844201D3002C6B
:103B5000EDD100F004F8012070BD002070BD002000
:103B60002863202105F13C00002241700021817072
:103B7000416841F0200141600270704701684A6964
:103B8000530511D56FF480634B61002101633C3014
:103B900020214170002200218170416841F0040120
:103BA00041600270012070470020704782B0002001
:103BB000009000226948416841F4804141604168B9
:103BC00001F480410091009900920F21036843F0B5
:103BD00080530360006800F08050009000986FF000
:103BE000010002B000F0BEB910B586B004466846C8
:103BF000142100F0F3F9206859495A4C88421DD12C
:103C0000002005901222216841F0020121604FF44A
:103C10001071206800F0020000F054F8002100F05C
:103C20004BF8514800F0DEF900200590216941F47D
:103C300000112161206900F4001039E04B498842ED
:103C400038D100200590216841F004012160002155
:103C5000206800F004000590059805914FF400716C
:103C6000226842F0010222601222206800F0010066
:103C700000F028F8032100F01FF83D4800F0B2F9E9
:103C80004FF48070009012210120019102900321D5
:103C90000420039104906946364800F0A3F90020FF
:103CA0000590216941F400012161206900F40000C0
:103CB0000590059806B010BD042003910490019270
:103CC0006946704705900598009101200290704761
:103CD00081B00068284988420BD100211F4800911B
:103CE000026842F008020260006800F008000090DC
:103CF000009801B0704710B586B0044601A81421A1
:103D000000F06CF921681D4A914224D100200090F6
:103D100000221448016941F400310161016901F494
:103D200000310091009900920C21036843F00103D7
:103D300003600222006800F00100009000980191E9
:103D4000002003900321072004910590029201A90D
:103D5000084800F047F906B010BD000040380240A6
:103D6000005400403038024000040240005C004033
:103D70000008024000000240000C004000440040E7
:103D80002DE9F84304000F4677D0494E306800F023
:103D90000F00B84202D200F072F86ED12068454D93
:103DA000810712D5400703D5A86840F4E050A86009
:103DB0002178080703D5A86840F46040A860A96886
:103DC000A06821F0F0010143A9602078C1074CD51B
:103DD0006068012802D129688A0305E0022818BF1B
:103DE000032803D129688A0103D446E02A68910791
:103DF00043D5A968890840EA8100A86041F2893961
:103E000000F08EF88046A868616800F00C00B0EB06
:103E1000810F2AD000F084F8A0EB08004845F2D3C7
:103E2000032020E02078410705D5A968E06821F447
:103E3000E0510143A9602078010706D5A8682169EF
:103E400020F4604040EAC100A86000F03DF8AA6894
:103E50001949C2F30312895C184AC84010600F2048
:103E600000F0B8F90020BDE8F283306800F00F00E0
:103E70008742D7D200F003F8D4D00120F3E737709F
:103E8000316801F00F01B94270470C480C4A0068D4
:103E900013680C49C3F3822206E00848084A006808
:103EA00013680849C3F34232895CC8407047000078
:103EB000003C02400038024014510008BC010020C0
:103EC00008380240A452000818B5124C606800F08F
:103ED0000C00042802D0082802D019E00E4812BDB8
:103EE00000232268206841022068C0F388104CBF7C
:103EF00009490A4902F03F02A1FB0001FDF732FA2D
:103F00002168C1F30141491C4900B0FBF1F012BD29
:103F1000024812BD0438024000127A000024F40066
:103F200001484068704700BFB0010020090102004D
:103F300081B002D42448815405E0244802F00F02E5
:103F4000104400F8041C01B07047214A13684FF672
:103F5000FF0100020B4000F4E06018431D490843D4
:103F60001060704738B51A4B1C68C4F30223C3F1C4
:103F70000704052C28BF04241D1D072D34BF002372
:103F8000DB1E012505FA04F4641E2140994005FA60
:103F900003F35B1E1A401143BDE83440C6E710B579
:103FA000401EB0F1807F01D3012010BD0A4C60603B
:103FB0000F214FF0FF30FFF7B9FF0022A26007206A
:103FC0002060002010BD000000E400E018ED00E0DB
:103FD0000CED00E00000FA0510E000E00022FEF722
:103FE000E1BB00002DE9F84F4FF0000E704A714B15
:103FF000DFF8C4814FF00F0906468A460121DAF83E
:10400000004001FA0EF10C408C4240F0AD80DAF82D
:104010000450022D18BF122D4FEA8E0012D14FEA24
:10402000DE0506EB850C00F01C05DCF8207009FAB3
:1040300005FB27EA0B07DAF810B00BFA05F53D434C
:10404000CCF820504FEA4E0C032537689AF804B09C
:1040500005FA0CF5ED430BF0030B2F400BFA0CFBAC
:104060004BEA07073760DAF80470012F18BF022FF8
:1040700003D0112F18BF122F13D1B768DAF80CB084
:104080002F400BFA0CFB4BEA0707B760776827EA6B
:104090000101DAF80470C7F3001707FA0EF7394385
:1040A0007160F1680D40DAF8081001FA0CF129434B
:1040B000F160DAF80410C90056D50025009500F02B
:1040C0000C00D8F8001041F48041C8F8001009FA3B
:1040D00000F7D8F8005005F48045009500994FEAA4
:1040E0009E0153F8215025EA0707344DAE4208BF20
:1040F000002513D0324DAE4208BF01250ED0314D00
:10410000AE4208BF022509D02F4DAE4208BF03259D
:1041100004D02E4DAE420CBF0425072505FA00F051
:10412000384343F82100E0431168DAF804500140B5
:10413000ED0348BF214311605168DAF80450014093
:10414000AD0348BF214351609168DAF80450014043
:10415000ED0248BF21439160D1680140DAF80400C4
:10416000800248BF2143D1600EF1010EBEF10F0F56
:104170007FF644AFBDE8F18F0069084018BF012009
:10418000C0B2704781B002B9090405E081B042694C
:104190000A408A4208BF0904816101B070470C4A95
:1041A000136803421CBF106000F034B87047000071
:1041B000003C014008380140443802400000024001
:1041C0000004024000080240000C024000100240BF
:1041D000143C014038B50D4D0D4A297804464FF482
:1041E0007A70B0FBF1F11068B0FBF1F0FFF7D7FE89
:1041F00050B9102C08D2002221464FF0FF30FFF7B3
:10420000B1FEAC60002032BD012032BDB001002003
:10421000BC010020102818BF202804D14FF47041A1
:104220000148FFF7B3BF7047000C024010B500F023
:10423000A5F900F038F800F07EF89E4C9E4820600A
:104240009E4860600020A060E0604FF480402061E4
:1042500000206061A061E06120622046FFF796F9CE
:10426000974860654FF4E130A0650020E065206666
:1042700060660C20A0660020E066206704F1540010
:1042800000F096F900F01EFB00F05CFBFEF7EEFB81
:10429000B1A20FF2B9200021FEF723FCC4F894006C
:1042A000FEF7FEFBFEE780B592B006A83021FFF7CF
:1042B00095FE01A81421FFF791FE0020009081488F
:1042C000016841F0805101600021006800F08050D9
:1042D000009000987C4800910221026842F440421C
:1042E00002600122006800F44040009000980691AE
:1042F00010200A900C9100200D900821C0200F90F2
:104300000E910820042111900992109106A800F046
:10431000ADFB0F20019002210020029103904FF489
:10432000A0514FF4805004910590032101A8FFF79C
:1043300027FD13B000BD2DE9F04186B06846142179
:10434000FFF74CFE00246148DFF88481614E624F24
:1043500005944FF210050168604C41F010010160B6
:10436000026802F010020592002205990592036886
:1043700043F004030360016801F0040100F0BAF89F
:1043800043F080030360016801F0800100F0B2F89F
:1043900043F001030360016801F0010100F0AAF895
:1043A00043F002030360016801F0020105910599E1
:1043B00005920821036843F008030360006800F0D9
:1043C0000800059005984046FFF7DCFE0122012118
:1043D0002046FFF7D7FE002229463046FFF7D2FEDF
:1043E000042000F099F840466946FFF7FBFD0820DD
:1043F00000900121002001910290039069464046FF
:10440000FFF7F0FD322000F07AF84046FFF7EAFDB2
:104410000120009001906946002002900390204600
:10442000FFF7E0FD082000F086F82046FFF7DAFDF0
:10443000012000F064F82A4F00F059F8102000F035
:1044400070F800F054F8E02000F05FF8052000F06C
:104450004BF84FF4A05000F06EF82248FFF7C2FD71
:104460000120002101900291039100956946304698
:10447000FFF7B8FD4FF4A45000F053F82046FFF7C3
:10448000B1FD4FF4007000F047F838466946FFF779
:10449000A9FD4FF4E05000F038F80A2000F024F8AD
:1044A000202000F039F830466946FFF79BFD06B042
:1044B000BDE8F081384B002000540040A086010088
:1044C0000044004040380240007000403038024054
:1044D00000100240000C02400000121000080240D0
:1044E00000000240000402400391049069463846EF
:1044F000FFF778BD05910599059203687047009014
:104500000197002002906946704700900221002028
:1045100001910290032170470021009001910291C6
:104520007047009002210020029003900191062024
:104530000490694670470090022100200290039089
:1045400001910520049069467047000080B5012064
:10455000FEF723FBFBE770478C52000800000000C9
:1045600000000000000000000000000080000000CB
:1045700018000000000000000000000080B50B489B
:10458000016841F400710160026842F480620260D7
:10459000016841F4807101600320FFF7D6FC0F2011
:1045A000FFF718FEFFF702FB002002BD003C0240AF
:1045B00038B5040001D1012032BD00F022F808B95D
:1045C00000F023F800F013F800F024F8FFE7416151
:1045D00000F001F832BD2068C16841F40051C160AB
:1045E0000020686020206870A87000207047242098
:1045F00068702068C16821F40051C160204600F055
:104600009EB804F13805687870470021297020466B
:10461000FFF771BB2068016921F4904101612068B6
:10462000416921F02A0170472DE9F843054605F15B
:1046300038070C4678782028164698463CD1002C3E
:1046400014BF002E012038D03878012834D0012141
:1046500039702120002179607870FFF761FCAE8409
:104660008146EE8403E0296814F8010B4860E88C69
:1046700028B3E98C481EE8844B46A868CDF8008032
:10468000B0F5805F0DD100F024F870B9208829685A
:10469000C0F3080048602869002814BF641CA41CEB
:1046A000E5E700F016F80028DDD0032005E0202023
:1046B00078700020387000E00220BDE8F283CDF869
:1046C00000804B460022402100F005F80028EED083
:1046D000EBE7002280212846FFE72DE9F041069C08
:1046E00005460E4690461F46286801683140B14293
:1046F0000CBF01200020404517D114F1010FF3D069
:1047000024B1FFF70DFCC01B8442EDD22868C168BC
:1047100021F4D07100F00CF805F13800202141702F
:10472000817000210170032000E00020BDE8F081CD
:10473000C1602868416949084900416170472DE915
:10474000F0470446642521680A69E06822F4405273
:1047500002430A611926CA6848480240A068024319
:104760002069024360690243E0690243CA604A6902
:10477000A06922F4407202434A61E3694048414A19
:10478000B3F5004F3BD1914218BF814210D1FFF7E2
:1047900084FB0746FFF781FB8046FFF77EFB8146DF
:1047A000FFF77BFB06FB09F98246FFF776FB0FE07C
:1047B000FFF76BFB0746FFF768FB8046FFF765FBDB
:1047C0008146FFF762FB06FB09F98246FFF75DFBB6
:1047D0006168490000F058F8DB003233B3FBF5F3B1
:1047E0005B00B2FBF5F203F4F87300F05BF8ED0048
:1047F00032356420B5FBF0F000F0070037E091425D
:1048000018BF81420ED1FFF748FB0746FFF745FB73
:104810008046FFF742FB8146FFF73FFB8246FFF7EA
:104820003CFB0DE0FFF731FB0746FFF72EFB804610
:10483000FFF72BFB8146FFF728FB8246FFF725FB9E
:1048400006FB09F96168890000F01EF81B0132338C
:10485000B3FBF5F3B2FBF5F203F0F00300F022F83E
:104860002D0132356420B5FBF0F000F00F00216817
:10487000C3188B60BDE8F08700000000F369FFFFFC
:1048800000140140001001407743B7FBF1F206FB32
:1048900008F7B7FBF1F3B9FBF1F7B7FBF5F705FB49
:1048A0001733704703EB021306FB0AF74643B7FBC7
:1048B000F1F2B6FBF1F06421B0FBF1F005FB10253D
:1048C0007047000010B51A481A4901601A49416042
:1048D00000218160C1604FF480410161002141618C
:1048E0008161C1610162FEF751FE08B1FFF733FE3D
:1048F00000F034FA012808BFFFF72DFE00F0FCFAA3
:10490000082000F0E6FA0121012000F07DFA00BF46
:104910000AA40121204600F089FA4FF4487000F003
:104920001FFB00F063FA142000F01AFBF1E700000F
:10493000244C0020005C0040A08601004B756E7482
:104940006900000070B588B068462021FFF746FB7B
:1049500000F049F8DFF8E4403FA5394E00F018F8C0
:104960003A213060B0FBF1F272602946684600F0EF
:104970000BFB4FF47A731E2269462046FFF754FE64
:104980001E216846FFF72AFBC82000F0E9FAE5E798
:1049900038B52C4C2C4D0020206000F01FF8022070
:1049A00000F03EF8012200F01AF80A2000F038F872
:1049B00000F014F820212846FFF7DEFB0028F9D08C
:1049C00020212846FFF7D8FB0028206805D0401C8E
:1049D0002060012000F024F8F2E732BD002210210F
:1049E0002846FFF7CFBB80B500200090174801682C
:1049F00041F0080101600068154900F008000090CE
:104A00000098144801602F2141606FF00101C160DE
:104A100000F0DAFA18B1BDE80140FFF79CBD01BD16
:104A200038B50C4D2968044600204862284600F03D
:104A3000D8FA2868416AA142FCD331BD8C4B0020D2
:104A4000F84C0020044D0020000002404038024095
:104A5000000C0040B84C002064697374616E63659B
:104A6000203D20256420636D0D0A00002DE9F843E8
:104A7000040017D02078B54EC10741D5B06800F0CA
:104A80000C00042807D0B06800F00C0008280BD1F7
:104A90007068410208D53168880331D56068002804
:104AA00040F0B68001204FE16068B0F5803F06D04D
:104AB000B0F5A02F316807D141F480213160306812
:104AC00040F48030306006E021F48031316032689B
:104AD00022F480223260606868B1FFF721FA05464F
:104AE0003168880300F19480FFF71AFA401B6528AB
:104AF000F6D3032028E1FFF713FA05463068810357
:104B000040F18680FFF70CFA401B6528F6D3F0E7EA
:104B1000FFF706FA401B022840F2A780E9E7E068A9
:104B200070B101213960FFF7FBF905463068810754
:104B300000F1CB80FFF7F4F9401B0228F6D9D8E743
:104B40003860FFF7EDF905463068810763D5FFF758
:104B5000E7F9401B0228F7D9CBE70860FFF7E0F937
:104B60000546706F810775D5FFF7DAF9401B0228FB
:104B7000F7D9BEE70528306F06D140F00400306752
:104B8000306F40F0010005E0400840003067306FB2
:104B900020F00400306741F28938A06868B1FFF75F
:104BA000BFF98146306F810700F19C80FFF7B8F9AB
:104BB000A0EB09004045F5D39BE7FFF7B1F981462B
:104BC000306F810740F18E80FFF7AAF9A0EB090052
:104BD0004045F5D38DE7FFF7A3F9401B022840F2CB
:104BE000968086E7FFF79CF9001B022840F2A78019
:104BF0007FE700203866FFF793F9044630688101AB
:104C000040F1A180FFF78CF9001B0228F6D970E76C
:104C100020784F4F81071BD5B06810F00C0F09D0DA
:104C2000B06800F00C0008287FF479AF706841028A
:104C30003FF575AF3168880703D5E06801287FF438
:104C400031AF3168206921F0F80141EAC0013160DB
:104C5000217808070DD560693E4900283FF47DAFF3
:104C600001220A60FFF75CF90546706F81077FF546
:104C70004FAF217848073AD5306C0025C1000AD4DF
:104C800000950125306C40F080503064306C00F0AD
:104C9000805000900098DFF8C080D8F80010C80558
:104CA0001BD4D8F8000040F48070C8F80000FFF76B
:104CB00037F98146D8F80010C8050ED4FFF730F94F
:104CC000A0EB09000228F5D913E73068216920F02C
:104CD000F80040EAC1003060BAE7A06801287FF41C
:104CE00049AF4DE71DB1306C20F080503064A069B1
:104CF00048B3B16801F00C0108293FF4D3AE022893
:104D00007FF477AF00203866FFF70AF90546306870
:104D100081013FF560AFE169206AA26A0143606AE0
:104D2000520841EA8011521EE06A41EA024141EA1A
:104D30000061716001213966FFF7F2F804463068BE
:104D400081017FF54FAF0020BDE8F28300380240BB
:104D500000004742800E47420070004010B53220EC
:104D600000F0FEF8604C614920465422FCF7B6FA88
:104D70005F4801794FF47A7303222046FEF784FDE1
:104D800000B1012010BD38B500F027F842F0040052
:104D90002070627141F00400A1710DE038B500F09F
:104DA0001CF842F005006271A171207042F001020E
:104DB00041F0050041F001016270A070E1702846E9
:104DC0004A495422FCF78AFAC8200090042321792A
:104DD00022462846FEF770FC31BD454C424DE17934
:104DE00000F0F0020A4341EA0011704780B501204B
:104DF000FFF7C9FF0A2000F0B3F83E4800214170D8
:104E00000121017001BD00003A4A1070421E022AC1
:104E10003CBF4B1E102B08D249A202EB00100844E5
:104E200010F8110C40F08000ADE7704738B505462A
:104E3000304C0020607011B1012915D031BD2878A7
:104E4000002845D015F8010BFFF7A8FF6078401C3B
:104E50006070C0B21028F2D120780121401CFFF709
:104E6000D3FF00206070EAE704F10C0141F8205004
:104E70006D1C401C6428F9DBE068FCF7D1F9A070D8
:104E8000E11C2078095CFFF7BFFF2178E01D455C3D
:104E900007E004F10C0050F825000078FFF77EFFD2
:104EA0006D1CA0788542F4DB21782144CA78521E1B
:104EB000CA70D2B262B90122CA70CA79521CCA71D0
:104EC000D2B2824204D11020C8700020C871A070F4
:104ED00031BD082818BF0028054902D1C87120201B
:104EE0005CE7704700000000D04B0020244C0020FD
:104EF000000000200800002080B50120FFF743FFDC
:104F00004FF47A7000F02CF80220FFF73CFF0520E8
:104F100000F026F82820FFF736FF052000F020F8E3
:104F20000C20FFF730FF052000F01AF88020FFF773
:104F30002AFFBDE802404FF4FA7000F011B80000FB
:104F4000000102030405060708090A0B0C0D0E0FE9
:104F5000404142434445464748494A4B4C4D4E4FD9
:104F600038B50446FEF7DCFF14F1010F054602D008
:104F7000044801786418FEF7D3FF401BA042FAD31F
:104F800031BD00BFB00100200CB430B583B0044681
:104F900006A802900A4600250194009502AB01A9DB
:104FA000084878441E30FBF7F7F801990D70002887
:104FB0004EBF04460198041B204603B030BC5DF888
:104FC0000CFB00BF13C2FFFF38B5040001D1012064
:104FD00032BD00F026F818B900F01FF8FEF778FE91
:104FE00011E0022180F83D1001688A6802F0070292
:104FF000062A03D00A6842F001020A60012180F803
:105000003D100020704702206870211D206800F0CC
:105010000CF801206870002032BD00212970204664
:10502000704704F13C0568787047F0B51D4B046883
:105030001D4D1E4E1E4F984218BFB0F1804F04D038
:10504000B8421CBFB042A8420CD14A6824F0700498
:105050001443984218BFB0F1804F0ED0B84218BF29
:10506000B0420AD0A8421CBF124A904205D0124A50
:1050700090421CBF114A904203D1CA6824F4407484
:1050800014434A6924F080041443046098428A68F7
:10509000C2620A68826202D10969094A116001226A
:1050A0004261F0BD00000140000C004000080040DB
:1050B000000400400040014000440140004801401D
:1050C000300001400E48016841F470010160002287
:1050D0000C49086840F0010008608A600A480A68C4
:1050E00002400A60002209484860086820F48020D5
:1050F0000860CA604FF00060054908607047000012
:1051000088ED00E000380240FFFFF6FE103000247A
:1051100008ED00E0000000000000000001020304B0
:105120000607080919E050F8042BD30744BFA9F17A
:1051300001039A18091F0023042942F8043BF9D2FD
:105140005FEA817C134604D54FF0000CA2F800C042
:105150009B1CC90744BF0021197050F8041B00298B
:10516000E1D1704730B5016884684218416802EBAC
:105170005103C9070BD54C4409E012F9011B12F881
:10518000015B002904F8015B05D5491CF9D19A425D
:10519000F3D10C3030BD491EF1D5F8E77047FEE77A
:1051A000FEE7FEE7FEE7704780B500F00FF8FDF779
:1051B0008DF9012803D0BDE80140FDF7F9BB01BD21
:1051C0001020FEF7ECBF2020FEF7E9BF024841683F
:1051D0000278891841607047B001002010B5074976
:1051E00079441831064C7C44163404E00A68081DE2
:1051F000114488470146A142F8D110BD2C0000009F
:10520000480000004EF68851CEF20001086840F4D4
:1052100070000860BFF34F8FBFF36F8F4FF00070C7
:10522000E1EE100A70470000FDFEFFFFCC4A0000CF
:1052300040020020000000002DFFFFFF520100008F
:10524000E20000000000002000F00DF8002801D06E
:10525000FFF7C4FFAFF300800020AFF30080FEF73C
:10526000E5FF00F002F80120704700F001B80000EF
:1052700007463846FCF706FEFBE70000014880477A
:1052800001480047C55000089952000864656661EE
:10529000756C745461736B00AFF30080FFF7B2FF5D
:1052A000FFF7D2FF000000000102030400002E00FF
:1052B0004300FFF7FEBFFFF7FEBFFFF7FEBFFFF79C
:1052C000FEBFFFF7FEBFFFF7FEBFFFF7FEBFFFF712
:1052D000FEBFFFF7FEBFFFF7FEBFFFF7FEBFFFF702
:1052E000FEBFFFF7FEBFFFF7FEBFFFF7FEBFFFF7F2
:1052F000FEBFFFF7FEBFFFF7FEBFFFF7FEBFFFF7E2
:10530000FEBFFFF7FEBFFFF7FEBFFFF7FEBFFFF7D1
:10531000FEBFFFF7FEBFFFF7FEBFFFF7FEBFFFF7C1
:10532000FEBFFFF7FEBFFFF7FEBFFFF7FEBFFFF7B1
:10533000FEBFFFF7FEBFFFF7FEBFFFF7FEBFFFF7A1
:10534000FEBFFFF7FEBFFFF7FEBFFFF7FEBFFFF791
:10535000FEBFFFF7FEBFFFF7FEBFFFF7FEBFFFF781
:10536000FEBFFFF7FEBFFFF7FEBFFFF7FEBFFFF771
:10537000FEBFFFF7FEBFFFF7FEBFFFF7FEBFFFF761
:10538000FEBFFFF7FEBFFFF7FEBFFFF7FEBFFC004B
:10539000004EFD000001FD00FC1081008100810035
:1053A000E500FCAAFC000001F9000010FC001E242E
:1053B000F400AC520008AC520008AC520008AC52E9
:1053C0000008AC520008AC520008AC520008F8FFCC
:1053D0000BAE520008AC520008AC520008FAFF06AF
:1053E0000000B052000801FD0003C0010020D800F9
:1053F0000341110008FC00042F11000801F900000E
:0D540000000000000000000000000000009F
:040000050800529904
:00000001FF
